:020000040800F2
:1000000070060020190200082102000823020008DF
:10001000250200082702000829020008000000004D
:100020000000000000000000000000002B0200089B
:100030002D020008000000002F0200083102000815
:1000400033020008330200083302000833020008BC
:1000500033020008330200083302000833020008AC
:10006000330200083302000833020008330200089C
:10007000330200083302000833020008330200088C
:1000800033020008330200083302000800000000B9
:100090000000000000000000000000003302000823
:1000A000330200083302000833020008330200085C
:1000B000330200083302000833020008330200084C
:1000C000330200083302000833020008330200083C
:1000D0003302000833020008330200080000000069
:1000E0003302000833020008330200080000000059
:1000F00000000000000000000000000033020008C3
:100100000000000033020008330200083302000838
:1001100000000000000000000000000000000000DF
:1001200033020008330200083302000833020008DB
:100130003302000800000000000000000000000082
:100140000000000000000000000000003302000872
:1001500033020008330200083302000833020008AB
:100160003302000833020008000000000000000015
:10017000000000000000000000000000000000007F
:100180000000000033020008000000000000000032
:100190003302000800F002F800F02EF80AA090E800
:1001A000000C82448344AAF10107DA4501D100F032
:1001B00023F8AFF2090EBAE80F0013F0010F18BFD1
:1001C000FB1A43F001031847780200008802000080
:1001D0000023002400250026103A28BF78C1FBD850
:1001E000520728BF30C148BF0B6070471FB500F0F1
:1001F00019F91FBD10B510BD00F031F81146FFF719
:10020000F5FF00F0D5F800F04FF803B4FFF7F2FF68
:1002100003BC00F057F80000094880470948004730
:10022000FEE7FEE7FEE7FEE7FEE7FEE7FEE7FEE7A6
:10023000FEE7FEE704480549054A064B7047000003
:10024000950300089501000870000020700600204A
:10025000700200207002002070477047704775469A
:1002600000F02CF8AE4605006946534620F0070022
:10027000854618B020B5FFF7DDFFBDE820404FF000
:1002800000064FF000074FF000084FF0000BAC469F
:10029000ACE8C009ACE8C009ACE8C009ACE8C009EA
:1002A00021F007018D46704710B50446AFF300807A
:1002B0002046BDE81040FFF7A8BF00000048704787
:1002C0000000002001491820ABBEFEE72600020016
:1002D000704700002DE9F041D1F8008000234FF075
:1002E000030C4FF0010E00240FE000BFC268AA43C8
:1002F000C260CA79C5689A402A43C2600134102C92
:1003000003F1020308BFBDE8F08128FA04F5ED0708
:10031000F4D006680CFA03F5AE4306600E79076860
:1003200006FA03F2013E3A43012E0260DED88268EB
:10033000EE43324082604A798E7987689A403A4328
:10034000826042680EFA04F7BA43426006FA04F289
:10035000466892B232434260C8E700000069084034
:1003600018BF012070470000418370470183704728
:100370004FF6FF710022C0E900127047002943F6D2
:100380003001C4F202010A680CBF22EA00001043E7
:10039000086070474EF68850CEF20000016841F4C4
:1003A000700101604FF0006140F8801C7047000050
:1003B00040F600040C200121C4F202040127FFF7DB
:1003C000DDFF40F26806C2F200063046FFF7D0FFBC
:1003D0004FF400503060002004F5806530712846ED
:1003E0003146FFF777FF40F26006C2F20006304662
:1003F000FFF7BEFF40203060204631463771FFF7DF
:1004000069FF03E020464021FFF7AEFF28464FF486
:100410000051FFF7A3FF0028F4D120464021FFF749
:10042000A5FFF3E7F1EE100A4FF6FF71C0F2C031FD
:1004300020EA010040F04070E1EE100A7047000031
:10044000500400080000002070060000D0010008E1
:0400000508000219D4
:00000001FF
